{
  "contractName": "Encuesthas",
  "abi": [
    {
      "constant": true,
      "inputs": [],
      "name": "owner",
      "outputs": [
        {
          "name": "",
          "type": "address"
        }
      ],
      "payable": false,
      "stateMutability": "view",
      "type": "function"
    },
    {
      "inputs": [],
      "payable": false,
      "stateMutability": "nonpayable",
      "type": "constructor"
    },
    {
      "payable": true,
      "stateMutability": "payable",
      "type": "fallback"
    },
    {
      "anonymous": false,
      "inputs": [
        {
          "indexed": false,
          "name": "candidateName",
          "type": "bytes32"
        },
        {
          "indexed": false,
          "name": "candidateVotes",
          "type": "uint8"
        }
      ],
      "name": "AddedVote",
      "type": "event"
    },
    {
      "anonymous": false,
      "inputs": [
        {
          "indexed": false,
          "name": "candidateStored",
          "type": "bytes32"
        }
      ],
      "name": "AddedCandidate",
      "type": "event"
    },
    {
      "anonymous": false,
      "inputs": [
        {
          "indexed": false,
          "name": "candidateRetrieved",
          "type": "bytes32[10]"
        }
      ],
      "name": "RetrievedCandidate",
      "type": "event"
    },
    {
      "constant": false,
      "inputs": [
        {
          "name": "_candidate",
          "type": "bytes32"
        }
      ],
      "name": "addCandidate",
      "outputs": [],
      "payable": false,
      "stateMutability": "nonpayable",
      "type": "function"
    },
    {
      "constant": false,
      "inputs": [
        {
          "name": "_candidate",
          "type": "bytes32"
        }
      ],
      "name": "addVoteToCandidate",
      "outputs": [],
      "payable": false,
      "stateMutability": "nonpayable",
      "type": "function"
    },
    {
      "constant": true,
      "inputs": [],
      "name": "getCandidates",
      "outputs": [
        {
          "name": "",
          "type": "bytes32[10]"
        },
        {
          "name": "",
          "type": "uint8[10]"
        }
      ],
      "payable": false,
      "stateMutability": "view",
      "type": "function"
    }
  ],
  "bytecode": "0x608060405260008060146101000a81548160ff021916908360ff16021790555034801561002b57600080fd5b50336000806101000a81548173ffffffffffffffffffffffffffffffffffffffff021916908373ffffffffffffffffffffffffffffffffffffffff16021790555061063d8061007b6000396000f3fe60806040526004361061003f5760003560e01c806306a49fce14610041578063230d6ed8146100c35780632efb1479146100fe5780638da5cb5b14610139575b005b34801561004d57600080fd5b50610056610190565b6040518083600a60200280838360005b83811015610081578082015181840152602081019050610066565b5050505090500182600a60200280838360005b838110156100af578082015181840152602081019050610094565b505050509050019250505060405180910390f35b3480156100cf57600080fd5b506100fc600480360360208110156100e657600080fd5b8101908080359060200190929190505050610250565b005b34801561010a57600080fd5b506101376004803603602081101561012157600080fd5b8101908080359060200190929190505050610431565b005b34801561014557600080fd5b5061014e610577565b604051808273ffffffffffffffffffffffffffffffffffffffff1673ffffffffffffffffffffffffffffffffffffffff16815260200191505060405180910390f35b61019861059c565b6101a06105bf565b6001600b81600a806020026040519081016040528092919082600a80156101dc576020028201915b8154815260200190600101908083116101c8575b5050505050915080600a806020026040519081016040528092919082600a8015610241576020028201916000905b82829054906101000a900460ff1660ff168152602001906001019060208260000104928301926001038202915080841161020a5790505b50505050509050915091509091565b8060011515600c600083815260200190815260200160002060009054906101000a900460ff16151514156102cf576040517f08c379a000000000000000000000000000000000000000000000000000000000815260040180806020018281038252602f8152602001806105e3602f913960400191505060405180910390fd5b6001600c600084815260200190815260200160002060006101000a81548160ff0219169083151502179055506000600f600084815260200190815260200160002060006101000a81548160ff021916908360ff160217905550600060149054906101000a900460ff16600d600084815260200190815260200160002060006101000a81548160ff021916908360ff160217905550816001600060149054906101000a900460ff1660ff16600a811061038357fe5b01819055506000600b600060149054906101000a900460ff1660ff16600a81106103a957fe5b602091828204019190066101000a81548160ff021916908360ff1602179055506001600060149054906101000a900460ff1601600060146101000a81548160ff021916908360ff1602179055507f43c2b69a13243c779065e38f54222c27292c282c19f5c25ef47d7c4880c5b8a8826040518082815260200191505060405180910390a15050565b60006001600f600084815260200190815260200160002060009054906101000a900460ff1601905080600f600084815260200190815260200160002060006101000a81548160ff021916908360ff16021790555080600b600d600085815260200190815260200160002060009054906101000a900460ff1660ff16600a81106104b657fe5b602091828204019190066101000a81548160ff021916908360ff1602179055506001600e60003373ffffffffffffffffffffffffffffffffffffffff1673ffffffffffffffffffffffffffffffffffffffff16815260200190815260200160002060006101000a81548160ff0219169083151502179055507fa8307e7fe756ff1c3230d2653eccbc48c4ee34e63e44da984c436089eac00ea88282604051808381526020018260ff1660ff1681526020019250505060405180910390a15050565b6000809054906101000a900473ffffffffffffffffffffffffffffffffffffffff1681565b604051806101400160405280600a90602082028038833980820191505090505090565b604051806101400160405280600a9060208202803883398082019150509050509056fe43616e64696461746f20736f6c6f207075656465207365722061c3b1616469646f20756e6120736f6c612076657a2ea165627a7a72305820f0ef5cd6346c5f4e0aabd4679da1920fe43ee3aa9f617caf07a25e8b5c62b91c0029",
  "source": "pragma solidity ^0.5.0;\n\n\ncontract Ownable {\n   address public owner;\n\n   constructor () public{\n       owner = msg.sender;\n   }\n\n   modifier onlyOwner {\n       require(msg.sender == owner, \"Votante no autorizado.\");\n       _;\n   }\n}\n\n\ncontract Encuesthas is Ownable {\n   uint8 counter = 0;\n   bytes32[10] candidatesNames;\n   uint8[10] candidatesVoteCounts;\n   mapping(bytes32 => bool) candidates;\n   mapping(bytes32 => uint8) candidatesIdx;\n   mapping(address => bool) voters;\n   mapping(bytes32 => uint8) candidatesCount;\n\n   event AddedVote(bytes32 candidateName, uint8 candidateVotes);\n   event AddedCandidate(bytes32 candidateStored);\n   event RetrievedCandidate(bytes32[10] candidateRetrieved);\n\n   constructor() public {\n       // TODO: Develop a constructor :cara_ligeramente_sonriente:\n   }\n\n   modifier onlyNewCandidate(bytes32 _candidate){\n       require(candidates[_candidate] != true, \"Candidato solo puede ser añadido una sola vez.\");\n       _;\n   }\n\n   function addCandidate(bytes32 _candidate) external onlyNewCandidate(_candidate)  {\n       candidates[_candidate] = true;\n       candidatesCount[_candidate] = 0;\n       candidatesIdx[_candidate] = counter;\n\n       candidatesNames[counter] = _candidate;\n       candidatesVoteCounts[counter] = 0;\n\n       counter = counter + 1;\n       emit AddedCandidate(_candidate);\n   }\n\n   function addVoteToCandidate(bytes32 _candidate) external {\n       uint8 _candidateCount = candidatesCount[_candidate] + 1;\n       candidatesCount[_candidate] = _candidateCount;\n\n       candidatesVoteCounts[candidatesIdx[_candidate]] = _candidateCount;\n       voters[msg.sender] = true;\n       emit AddedVote(_candidate, _candidateCount);\n   }\n\n   function getCandidates() external view returns(bytes32[10] memory, uint8[10] memory) {\n       return (candidatesNames, candidatesVoteCounts);\n   }\n\n   function() external payable {}\n}",
  "sourcePath": "/Users/erick/Projects/tests/classroom-vote-system/contracts/Voting.sol",
  "compiler": {
    "name": "solc",
    "version": "0.5.8+commit.23d335f2.Emscripten.clang"
  },
  "schemaVersion": "3.0.10",
  "updatedAt": "2019-06-07T22:27:41.524Z",
  "devdoc": {
    "methods": {}
  },
  "userdoc": {
    "methods": {}
  }
}