{
  "contractName": "Ownable",
  "abi": [
    {
      "constant": true,
      "inputs": [],
      "name": "owner",
      "outputs": [
        {
          "name": "",
          "type": "address"
        }
      ],
      "payable": false,
      "stateMutability": "view",
      "type": "function"
    },
    {
      "inputs": [],
      "payable": false,
      "stateMutability": "nonpayable",
      "type": "constructor"
    }
  ],
  "bytecode": "0x6080604052348015600f57600080fd5b50600080546001600160a01b03191633179055608a806100306000396000f3fe6080604052348015600f57600080fd5b506004361060285760003560e01c80638da5cb5b14602d575b600080fd5b6033604f565b604080516001600160a01b039092168252519081900360200190f35b6000546001600160a01b03168156fea165627a7a72305820e691c84a497557f6e6da5c4deac2806d5363169f31859409eb6bbb25c064c7150029",
  "source": "pragma solidity ^0.5.8;\n\ncontract Ownable {\n   address public owner;\n\n   constructor () public{\n       owner = msg.sender;\n   }\n\n   modifier onlyOwner {\n       require(msg.sender == owner, \"Votante no autorizado.\");\n       _;\n   }\n}\n\n\ncontract Voting is Ownable {\n    // Candidates map\n    uint8 candidatesListCounter = 0;\n    uint8[9] private cantidateListId;\n    bytes32[9] private cantidateListName;\n    // Candidates utilities\n    mapping(uint8 => uint8) candidateListVotes;\n    mapping(bytes32 => bool) candidateValidator;\n\n    // Voters map\n    uint8[27] private votersListId;\n    bytes32[27] private votersListIdentification;\n    bytes32[27] private votersListName;\n    bool[27] private votersListVoted;\n    // Voters utilities\n    mapping(bytes32 => address) private votersListAddressMap;\n    mapping(bytes32 => bool) private votersListValidator;\n    mapping(address => uint8) private votersListIdMap;\n\n    // Voting starter and finisher\n    bool votingIsOpen;\n\n    // Events\n    event AddedCandidate(bytes32 candidateStored);\n    event AddedVote(bytes32 candidateName, uint8 candidateVotes);\n\n    /**\n     * Constructor. Initialize the voters.\n     */\n    constructor(uint8[27] memory _votersListId,\n                bytes32[27] memory _votersListIdentification,\n                bytes32[27] memory _votersListName) public {\n        votersListId = _votersListId;\n        votersListIdentification = _votersListIdentification;\n        votersListName = _votersListName;\n        for( uint8 i = 0 ; i < 27; i++){\n            votersListValidator[votersListIdentification[i]] = false;\n        }\n    }\n\n    /**\n     * We will only be accepting one candidate. The validation is being\n     * done using the candidate name.\n     */\n    modifier onlyNewCandidate(bytes32 _candidate){\n        require(candidateValidator[_candidate] != true, \"Candidato solo puede ser añadido una sola vez.\");\n        _;\n    }\n    modifier onlyValidVoter(bytes32 _voterIdentification){\n        require(votersListValidator[_voterIdentification] != true, \"Votante solo puede ser verificado una sola vez.\");\n        _;\n    }\n\n    function getCandidates() external view returns(uint8[9] memory, bytes32[9] memory) {\n        return (cantidateListId, cantidateListName);\n    }\n\n    function getCandidatesVotes(uint8 _candidateId) external view onlyOwner returns(uint8) {\n        return candidateListVotes[_candidateId];\n    }\n\n    function associateUserToAddress(bytes32 _voterIdentification) external onlyValidVoter(_voterIdentification) returns(address, bytes32) {\n        votersListAddressMap[_voterIdentification] = msg.sender;\n        votersListValidator[_voterIdentification] = true;\n        return (msg.sender, _voterIdentification);\n    }\n\n    function addCandidate(bytes32 _candidate) external onlyNewCandidate(_candidate)  {\n        // Storing candidate\n        cantidateListId[candidatesListCounter] = candidatesListCounter;\n        cantidateListName[candidatesListCounter] = _candidate;\n        candidateListVotes[candidatesListCounter] = 0;\n\n        // Adding the validator to true for next try\n        candidateValidator[_candidate] = true;\n\n        // Adds a new list counter for the next candidate\n        candidatesListCounter = candidatesListCounter + 1;\n        emit AddedCandidate(_candidate);\n    }\n\n    function vote(uint8 _candidateId, bytes32 _voterIdentification)  external {\n        // Validadtions\n        require(votingIsOpen == true, \"Solo se puede votar cuando el tiempo de votación este activo.\");\n        require(votersListAddressMap[_voterIdentification] == msg.sender, \"El votante solo puede votar usando una el address que validó.\");\n        require(votersListVoted[votersListIdMap[msg.sender]] == false, \"Votante solo puede votar una vez.\");\n\n        // Incrementing voting count\n        uint8 _candidateCount = candidateListVotes[_candidateId] + 1;\n\n        // Removing the possibility for this voter to vote again\n        votersListVoted[votersListIdMap[msg.sender]] = true;\n\n        // Asigning the new votes to the candidate\n        candidateListVotes[_candidateId] = _candidateCount;\n\n        emit AddedVote(cantidateListName[_candidateId], _candidateCount);\n    }\n\n    function initializeVoting() external onlyOwner {\n        votingIsOpen = true;\n    }\n\n    function finishVoting() external onlyOwner {\n        votingIsOpen = false;\n    }\n\n    function getVotingStatus() external view returns(bool) {\n        return votingIsOpen;\n    }\n\n    function() external payable {}\n}",
  "sourcePath": "/Users/manuel/Documents/classroom-vote-system/contracts/Voting.sol",
  "compiler": {
    "name": "solc",
    "version": "0.5.8+commit.23d335f2.Emscripten.clang"
  },
  "schemaVersion": "3.0.10",
  "updatedAt": "2019-06-12T20:32:16.486Z",
  "devdoc": {
    "methods": {}
  },
  "userdoc": {
    "methods": {}
  }
}