{
  "contractName": "Voting",
  "abi": [
    {
      "constant": true,
      "inputs": [],
      "name": "owner",
      "outputs": [
        {
          "name": "",
          "type": "address"
        }
      ],
      "payable": false,
      "stateMutability": "view",
      "type": "function"
    },
    {
      "inputs": [
        {
          "name": "_votersListId",
          "type": "uint8[27]"
        },
        {
          "name": "_votersListIdentification",
          "type": "bytes32[27]"
        },
        {
          "name": "_votersListName",
          "type": "bytes32[27]"
        }
      ],
      "payable": false,
      "stateMutability": "nonpayable",
      "type": "constructor"
    },
    {
      "payable": true,
      "stateMutability": "payable",
      "type": "fallback"
    },
    {
      "anonymous": false,
      "inputs": [
        {
          "indexed": false,
          "name": "candidateStored",
          "type": "bytes32"
        }
      ],
      "name": "AddedCandidate",
      "type": "event"
    },
    {
      "anonymous": false,
      "inputs": [
        {
          "indexed": false,
          "name": "candidateName",
          "type": "bytes32"
        },
        {
          "indexed": false,
          "name": "candidateVotes",
          "type": "uint8"
        }
      ],
      "name": "AddedVote",
      "type": "event"
    },
    {
      "constant": true,
      "inputs": [],
      "name": "getCandidates",
      "outputs": [
        {
          "name": "",
          "type": "uint8[9]"
        },
        {
          "name": "",
          "type": "bytes32[9]"
        }
      ],
      "payable": false,
      "stateMutability": "view",
      "type": "function"
    },
    {
      "constant": true,
      "inputs": [
        {
          "name": "_candidateId",
          "type": "uint8"
        }
      ],
      "name": "getCandidatesVotes",
      "outputs": [
        {
          "name": "",
          "type": "uint8"
        }
      ],
      "payable": false,
      "stateMutability": "view",
      "type": "function"
    },
    {
      "constant": false,
      "inputs": [
        {
          "name": "_voterIdentification",
          "type": "bytes32"
        }
      ],
      "name": "associateUserToAddress",
      "outputs": [
        {
          "name": "",
          "type": "address"
        },
        {
          "name": "",
          "type": "bytes32"
        }
      ],
      "payable": false,
      "stateMutability": "nonpayable",
      "type": "function"
    },
    {
      "constant": false,
      "inputs": [
        {
          "name": "_candidate",
          "type": "bytes32"
        }
      ],
      "name": "addCandidate",
      "outputs": [],
      "payable": false,
      "stateMutability": "nonpayable",
      "type": "function"
    },
    {
      "constant": false,
      "inputs": [
        {
          "name": "_candidateId",
          "type": "uint8"
        },
        {
          "name": "_voterIdentification",
          "type": "bytes32"
        }
      ],
      "name": "vote",
      "outputs": [],
      "payable": false,
      "stateMutability": "nonpayable",
      "type": "function"
    },
    {
      "constant": false,
      "inputs": [],
      "name": "initializeVoting",
      "outputs": [],
      "payable": false,
      "stateMutability": "nonpayable",
      "type": "function"
    },
    {
      "constant": false,
      "inputs": [],
      "name": "finishVoting",
      "outputs": [],
      "payable": false,
      "stateMutability": "nonpayable",
      "type": "function"
    },
    {
      "constant": true,
      "inputs": [],
      "name": "getVotingStatus",
      "outputs": [
        {
          "name": "",
          "type": "bool"
        }
      ],
      "payable": false,
      "stateMutability": "view",
      "type": "function"
    }
  ],
  "bytecode": "0x608060405260008054600160a01b60ff02191690553480156200002157600080fd5b50604051610a208062000bc38339810180604052610a208110156200004557600080fd5b50600080546001600160a01b0319163317905561036081016106c0820162000071600d84601b620000ed565b5062000081600e83601b62000187565b5062000091602982601b62000187565b5060005b601b8160ff161015620000e357600060466000600e8460ff16601b8110620000b957fe5b015481526020810191909152604001600020805460ff191691151591909117905560010162000095565b5050505062000207565b600183019183908215620001755791602002820160005b838211156200014457835183826101000a81548160ff021916908360ff160217905550926020019260010160208160000104928301926001030262000104565b8015620001735782816101000a81549060ff021916905560010160208160000104928301926001030262000144565b505b5062000183929150620001c6565b5090565b82601b8101928215620001b8579160200282015b82811115620001b85782518255916020019190600101906200019b565b5062000183929150620001ea565b620001e791905b808211156200018357805460ff19168155600101620001cd565b90565b620001e791905b80821115620001835760008155600101620001f1565b6109ac80620002176000396000f3fe6080604052600436106100865760003560e01c806386b5535b1161005957806386b5535b1461016a5780638da5cb5b146101ad578063cf155d4d146101de578063ef7f84071461022b578063f90943031461025e57610086565b806306a49fce14610088578063230d6ed814610102578063581c281c1461012c5780636d04aae214610155575b005b34801561009457600080fd5b5061009d610273565b604051808361012080838360005b838110156100c35781810151838201526020016100ab565b5050505090500182600960200280838360005b838110156100ee5781810151838201526020016100d6565b505050509050019250505060405180910390f35b34801561010e57600080fd5b506100866004803603602081101561012557600080fd5b503561030f565b34801561013857600080fd5b5061014161046b565b604080519115158252519081900360200190f35b34801561016157600080fd5b50610086610474565b34801561017657600080fd5b506101976004803603602081101561018d57600080fd5b503560ff166104e5565b6040805160ff9092168252519081900360200190f35b3480156101b957600080fd5b506101c2610561565b604080516001600160a01b039092168252519081900360200190f35b3480156101ea57600080fd5b506102086004803603602081101561020157600080fd5b5035610570565b604080516001600160a01b03909316835260208301919091528051918290030190f35b34801561023757600080fd5b506100866004803603604081101561024e57600080fd5b5060ff8135169060200135610607565b34801561026a57600080fd5b506100866107f8565b61027b610866565b610283610866565b60408051610120810191829052600191600291908390600990826000855b825461010083900a900460ff168152602060019283018181049485019490930390920291018084116102a157505060408051610120810191829052959750869450600993509150839050845b8154815260200190600101908083116102ed5750505050509050915091509091565b6000818152600c6020526040902054819060ff1615156001141561036757604051600160e51b62461bcd02815260040180806020018281038252602f815260200180610902602f913960400191505060405180910390fd5b600054600160a01b900460ff166001816009811061038157fe5b602091828204019190066101000a81548160ff021916908360ff160217905550816002600060149054906101000a900460ff1660ff16600981106103c157fe5b01556000805460ff600160a01b9182900481168352600b60209081526040808520805460ff19908116909155878652600c8352818620805490911660019081179091558554858104851690910190931690930274ff00000000000000000000000000000000000000001990921691909117909255805184815290517f43c2b69a13243c779065e38f54222c27292c282c19f5c25ef47d7c4880c5b8a8929181900390910190a15050565b60485460ff1690565b6000546001600160a01b031633146104d65760408051600160e51b62461bcd02815260206004820152601660248201527f566f74616e7465206e6f206175746f72697a61646f2e00000000000000000000604482015290519081900360640190fd5b6048805460ff19166001179055565b600080546001600160a01b031633146105485760408051600160e51b62461bcd02815260206004820152601660248201527f566f74616e7465206e6f206175746f72697a61646f2e00000000000000000000604482015290519081900360640190fd5b5060ff9081166000908152600b60205260409020541690565b6000546001600160a01b031681565b6000818152604660205260408120548190839060ff161515600114156105ca57604051600160e51b62461bcd02815260040180806020018281038252602f815260200180610952602f913960400191505060405180910390fd5b505050600081815260456020908152604080832080546001600160a01b031916339081179091556046909252909120805460ff1916600117905591565b60485460ff16151560011461065057604051600160e51b62461bcd02815260040180806020018281038252603e815260200180610886603e913960400191505060405180910390fd5b6000818152604560205260409020546001600160a01b031633146106a857604051600160e51b62461bcd02815260040180806020018281038252603e8152602001806108c4603e913960400191505060405180910390fd5b3360009081526047602052604090205460449060ff16601b81106106c857fe5b602081049091015460ff601f9092166101000a9004161561071d57604051600160e51b62461bcd0281526004018080602001828103825260218152602001806109316021913960400191505060405180910390fd5b60ff8281166000908152600b6020908152604080832054338452604790925290912054600191831682019260449116601b811061075657fe5b602091828204019190066101000a81548160ff02191690831515021790555080600b60008560ff1660ff16815260200190815260200160002060006101000a81548160ff021916908360ff1602179055507fa8307e7fe756ff1c3230d2653eccbc48c4ee34e63e44da984c436089eac00ea860028460ff16600981106107d857fe5b01546040805191825260ff841660208301528051918290030190a1505050565b6000546001600160a01b0316331461085a5760408051600160e51b62461bcd02815260206004820152601660248201527f566f74616e7465206e6f206175746f72697a61646f2e00000000000000000000604482015290519081900360640190fd5b6048805460ff19169055565b604051806101200160405280600990602082028038833950919291505056fe536f6c6f20736520707565646520766f746172206375616e646f20656c207469656d706f20646520766f74616369c3b36e20657374652061637469766f2e456c20766f74616e746520736f6c6f20707565646520766f746172207573616e646f20756e6120656c2061646472657373207175652076616c6964c3b32e43616e64696461746f20736f6c6f207075656465207365722061c3b1616469646f20756e6120736f6c612076657a2e566f74616e746520736f6c6f20707565646520766f74617220756e612076657a2e566f74616e746520736f6c6f20707565646520736572207665726966696361646f20756e6120736f6c612076657a2ea165627a7a72305820e4c0858f9ddeed811e2e7ff660213971afc08b88aa359e002b597b83adcbc27a0029",
  "source": "pragma solidity ^0.5.8;\n\ncontract Ownable {\n   address public owner;\n\n   constructor () public{\n       owner = msg.sender;\n   }\n\n   modifier onlyOwner {\n       require(msg.sender == owner, \"Votante no autorizado.\");\n       _;\n   }\n}\n\n\ncontract Voting is Ownable {\n    // Candidates map\n    uint8 candidatesListCounter = 0;\n    uint8[9] private cantidateListId;\n    bytes32[9] private cantidateListName;\n    // Candidates utilities\n    mapping(uint8 => uint8) candidateListVotes;\n    mapping(bytes32 => bool) candidateValidator;\n\n    // Voters map\n    uint8[27] private votersListId;\n    bytes32[27] private votersListIdentification;\n    bytes32[27] private votersListName;\n    bool[27] private votersListVoted;\n    // Voters utilities\n    mapping(bytes32 => address) private votersListAddressMap;\n    mapping(bytes32 => bool) private votersListValidator;\n    mapping(address => uint8) private votersListIdMap;\n\n    // Voting starter and finisher\n    bool votingIsOpen;\n\n    // Events\n    event AddedCandidate(bytes32 candidateStored);\n    event AddedVote(bytes32 candidateName, uint8 candidateVotes);\n\n    /**\n     * Constructor. Initialize the voters.\n     */\n    constructor(uint8[27] memory _votersListId,\n                bytes32[27] memory _votersListIdentification,\n                bytes32[27] memory _votersListName) public {\n        votersListId = _votersListId;\n        votersListIdentification = _votersListIdentification;\n        votersListName = _votersListName;\n        for( uint8 i = 0 ; i < 27; i++){\n            votersListValidator[votersListIdentification[i]] = false;\n        }\n    }\n\n    /**\n     * We will only be accepting one candidate. The validation is being\n     * done using the candidate name.\n     */\n    modifier onlyNewCandidate(bytes32 _candidate){\n        require(candidateValidator[_candidate] != true, \"Candidato solo puede ser añadido una sola vez.\");\n        _;\n    }\n    modifier onlyValidVoter(bytes32 _voterIdentification){\n        require(votersListValidator[_voterIdentification] != true, \"Votante solo puede ser verificado una sola vez.\");\n        _;\n    }\n\n    function getCandidates() external view returns(uint8[9] memory, bytes32[9] memory) {\n        return (cantidateListId, cantidateListName);\n    }\n\n    function getCandidatesVotes(uint8 _candidateId) external view onlyOwner returns(uint8) {\n        return candidateListVotes[_candidateId];\n    }\n\n    function associateUserToAddress(bytes32 _voterIdentification) external onlyValidVoter(_voterIdentification) returns(address, bytes32) {\n        votersListAddressMap[_voterIdentification] = msg.sender;\n        votersListValidator[_voterIdentification] = true;\n        return (msg.sender, _voterIdentification);\n    }\n\n    function addCandidate(bytes32 _candidate) external onlyNewCandidate(_candidate)  {\n        // Storing candidate\n        cantidateListId[candidatesListCounter] = candidatesListCounter;\n        cantidateListName[candidatesListCounter] = _candidate;\n        candidateListVotes[candidatesListCounter] = 0;\n\n        // Adding the validator to true for next try\n        candidateValidator[_candidate] = true;\n\n        // Adds a new list counter for the next candidate\n        candidatesListCounter = candidatesListCounter + 1;\n        emit AddedCandidate(_candidate);\n    }\n\n    function vote(uint8 _candidateId, bytes32 _voterIdentification)  external {\n        // Validadtions\n        require(votingIsOpen == true, \"Solo se puede votar cuando el tiempo de votación este activo.\");\n        require(votersListAddressMap[_voterIdentification] == msg.sender, \"El votante solo puede votar usando una el address que validó.\");\n        require(votersListVoted[votersListIdMap[msg.sender]] == false, \"Votante solo puede votar una vez.\");\n\n        // Incrementing voting count\n        uint8 _candidateCount = candidateListVotes[_candidateId] + 1;\n\n        // Removing the possibility for this voter to vote again\n        votersListVoted[votersListIdMap[msg.sender]] = true;\n\n        // Asigning the new votes to the candidate\n        candidateListVotes[_candidateId] = _candidateCount;\n\n        emit AddedVote(cantidateListName[_candidateId], _candidateCount);\n    }\n\n    function initializeVoting() external onlyOwner {\n        votingIsOpen = true;\n    }\n\n    function finishVoting() external onlyOwner {\n        votingIsOpen = false;\n    }\n\n    function getVotingStatus() external view returns(bool) {\n        return votingIsOpen;\n    }\n\n    function() external payable {}\n}",
  "sourcePath": "/Users/manuel/Documents/classroom-vote-system/contracts/Voting.sol",
  "compiler": {
    "name": "solc",
    "version": "0.5.8+commit.23d335f2.Emscripten.clang"
  },
  "schemaVersion": "3.0.10",
  "updatedAt": "2019-06-12T20:32:17.618Z",
  "devdoc": {
    "methods": {}
  },
  "userdoc": {
    "methods": {
      "constructor": "Constructor. Initialize the voters."
    }
  }
}