{
  "contractName": "Voting",
  "abi": [
    {
      "constant": true,
      "inputs": [],
      "name": "owner",
      "outputs": [
        {
          "name": "",
          "type": "address"
        }
      ],
      "payable": false,
      "stateMutability": "view",
      "type": "function"
    },
    {
      "inputs": [
        {
          "name": "_votersListId",
          "type": "uint8[28]"
        },
        {
          "name": "_votersListIdentification",
          "type": "bytes32[28]"
        },
        {
          "name": "_votersListName",
          "type": "bytes32[28]"
        },
        {
          "name": "_cantidateListId",
          "type": "uint8[9]"
        },
        {
          "name": "_cantidateListName",
          "type": "bytes32[9]"
        }
      ],
      "payable": false,
      "stateMutability": "nonpayable",
      "type": "constructor"
    },
    {
      "payable": true,
      "stateMutability": "payable",
      "type": "fallback"
    },
    {
      "anonymous": false,
      "inputs": [
        {
          "indexed": false,
          "name": "candidateStored",
          "type": "bytes32"
        }
      ],
      "name": "AddedCandidate",
      "type": "event"
    },
    {
      "anonymous": false,
      "inputs": [
        {
          "indexed": false,
          "name": "candidateName",
          "type": "bytes32"
        },
        {
          "indexed": false,
          "name": "candidateVotes",
          "type": "uint8"
        }
      ],
      "name": "AddedVote",
      "type": "event"
    },
    {
      "constant": true,
      "inputs": [],
      "name": "getCandidates",
      "outputs": [
        {
          "name": "",
          "type": "uint8[9]"
        },
        {
          "name": "",
          "type": "bytes32[9]"
        }
      ],
      "payable": false,
      "stateMutability": "view",
      "type": "function"
    },
    {
      "constant": true,
      "inputs": [
        {
          "name": "_candidateId",
          "type": "uint8"
        }
      ],
      "name": "getCandidateVotes",
      "outputs": [
        {
          "name": "",
          "type": "uint8"
        }
      ],
      "payable": false,
      "stateMutability": "view",
      "type": "function"
    },
    {
      "constant": true,
      "inputs": [],
      "name": "getCandidatesVotes",
      "outputs": [
        {
          "name": "",
          "type": "bytes32[9]"
        },
        {
          "name": "",
          "type": "uint8[9]"
        }
      ],
      "payable": false,
      "stateMutability": "view",
      "type": "function"
    },
    {
      "constant": false,
      "inputs": [
        {
          "name": "_voterIdentification",
          "type": "bytes32"
        }
      ],
      "name": "associateUserToAddress",
      "outputs": [
        {
          "name": "",
          "type": "address"
        },
        {
          "name": "",
          "type": "bytes32"
        }
      ],
      "payable": false,
      "stateMutability": "nonpayable",
      "type": "function"
    },
    {
      "constant": false,
      "inputs": [
        {
          "name": "_candidateId",
          "type": "uint8"
        },
        {
          "name": "_voterIdentification",
          "type": "bytes32"
        }
      ],
      "name": "vote",
      "outputs": [],
      "payable": false,
      "stateMutability": "nonpayable",
      "type": "function"
    },
    {
      "constant": false,
      "inputs": [],
      "name": "initializeVoting",
      "outputs": [],
      "payable": false,
      "stateMutability": "nonpayable",
      "type": "function"
    },
    {
      "constant": false,
      "inputs": [],
      "name": "finishVoting",
      "outputs": [],
      "payable": false,
      "stateMutability": "nonpayable",
      "type": "function"
    },
    {
      "constant": true,
      "inputs": [],
      "name": "getVotingStatus",
      "outputs": [
        {
          "name": "",
          "type": "bool"
        }
      ],
      "payable": false,
      "stateMutability": "view",
      "type": "function"
    }
  ],
  "bytecode": "0x608060405260008054600160a01b60ff02191690553480156200002157600080fd5b50604051610cc08062000c418339810180604052610cc08110156200004557600080fd5b50600080546001600160a01b0319163317905561038081016107008201610a808301610ba084016200007b600d86601c6200016e565b506200008b600e85601c62000208565b506200009b602a84601c62000208565b5060005b601c8160ff161015620000f057600160476000600e8460ff16601c8110620000c357fe5b015481526020810191909152604001600020805460ff191660ff929092169190911790556001016200009f565b506200010060018360096200016e565b5062000110600282600962000247565b5060005b60098160ff16101562000162576000600b8260ff16600981106200013457fe5b602091828204019190066101000a81548160ff021916908360ff160217905550808060010191505062000114565b505050505050620002b8565b600183019183908215620001f65791602002820160005b83821115620001c557835183826101000a81548160ff021916908360ff160217905550926020019260010160208160000104928301926001030262000185565b8015620001f45782816101000a81549060ff0219169055600101602081600001049283019260010302620001c5565b505b506200020492915062000277565b5090565b82601c810192821562000239579160200282015b82811115620002395782518255916020019190600101906200021c565b50620002049291506200029b565b8260098101928215620002395791602002820182811115620002395782518255916020019190600101906200021c565b6200029891905b808211156200020457805460ff191681556001016200027e565b90565b6200029891905b80821115620002045760008155600101620002a2565b61097980620002c86000396000f3fe6080604052600436106100865760003560e01c80638da5cb5b116100595780638da5cb5b14610183578063b21e3387146101b4578063cf155d4d146101c9578063ef7f840714610216578063f90943031461024957610086565b806306a49fce1461008857806355340fd214610102578063581c281c146101455780636d04aae21461016e575b005b34801561009457600080fd5b5061009d61025e565b604051808361012080838360005b838110156100c35781810151838201526020016100ab565b5050505090500182600960200280838360005b838110156100ee5781810151838201526020016100d6565b505050509050019250505060405180910390f35b34801561010e57600080fd5b5061012f6004803603602081101561012557600080fd5b503560ff166102fa565b6040805160ff9092168252519081900360200190f35b34801561015157600080fd5b5061015a61036f565b604080519115158252519081900360200190f35b34801561017a57600080fd5b50610086610378565b34801561018f57600080fd5b506101986103e9565b604080516001600160a01b039092168252519081900360200190f35b3480156101c057600080fd5b5061009d6103f8565b3480156101d557600080fd5b506101f3600480360360208110156101ec57600080fd5b50356104d9565b604080516001600160a01b03909316835260208301919091528051918290030190f35b34801561022257600080fd5b506100866004803603604081101561023957600080fd5b5060ff813516906020013561056d565b34801561025557600080fd5b50610086610794565b610266610802565b61026e610802565b60408051610120810191829052600191600291908390600990826000855b825461010083900a900460ff1681526020600192830181810494850194909303909202910180841161028c57505060408051610120810191829052959750869450600993509150839050845b8154815260200190600101908083116102d85750505050509050915091509091565b604a5460009060ff161561034257604051600160e51b62461bcd02815260040180806020018281038252603f815260200180610860603f913960400191505060405180910390fd5b600b8260ff166009811061035257fe5b602081049091015460ff601f9092166101000a9004169050919050565b604a5460ff1690565b6000546001600160a01b031633146103da5760408051600160e51b62461bcd02815260206004820152601660248201527f566f74616e7465206e6f206175746f72697a61646f2e00000000000000000000604482015290519081900360640190fd5b604a805460ff19166001179055565b6000546001600160a01b031681565b610400610802565b610408610802565b604a5460ff161561044d57604051600160e51b62461bcd02815260040180806020018281038252603f815260200180610860603f913960400191505060405180910390fd5b60408051610120810191829052600291600b9190839060099082845b81548152602001906001019080831161046957505060408051610120810191829052949650859350600992509050826000855b825461010083900a900460ff1681526020600192830181810494850194909303909202910180841161049c57905050505050509050915091509091565b6000818152604760205260408120548190839060ff1660011461053057604051600160e51b62461bcd02815260040180806020018281038252602f81526020018061091f602f913960400191505060405180910390fd5b505050600081815260466020908152604080832080546001600160a01b031916339081179091556047909252909120805460ff1916600217905591565b604a5460ff1615156001146105b657604051600160e51b62461bcd02815260040180806020018281038252603e815260200180610822603e913960400191505060405180910390fd5b6000818152604660205260409020546001600160a01b0316331461060e57604051600160e51b62461bcd02815260040180806020018281038252603e81526020018061089f603e913960400191505060405180910390fd5b60008181526047602052604090205460ff1660021461066157604051600160e51b62461bcd0281526004018080602001828103825260218152602001806108dd6021913960400191505060405180910390fd5b60008181526048602052604090205460ff16156106b257604051600160e51b62461bcd0281526004018080602001828103825260218152602001806108fe6021913960400191505060405180910390fd5b6000600b8360ff16600981106106c457fe5b6020808204909201546000858152604884526040808220805460ff19908116600190811790925560479096529120805490941660031790935560ff601f9092166101000a900481169190910191508190600b9085166009811061072357fe5b602091828204019190066101000a81548160ff021916908360ff1602179055507fa8307e7fe756ff1c3230d2653eccbc48c4ee34e63e44da984c436089eac00ea860028460ff166009811061077457fe5b01546040805191825260ff841660208301528051918290030190a1505050565b6000546001600160a01b031633146107f65760408051600160e51b62461bcd02815260206004820152601660248201527f566f74616e7465206e6f206175746f72697a61646f2e00000000000000000000604482015290519081900360640190fd5b604a805460ff19169055565b604051806101200160405280600990602082028038833950919291505056fe536f6c6f20736520707565646520766f746172206375616e646f20656c207469656d706f20646520766f74616369c3b36e20657374652061637469766f2e536f6c6f2073652070756564656e20766572206c6f7320766f746f73206375616e646f206c6120766f74616369c3b36e20657374c3a920636572726164612e456c20766f74616e746520736f6c6f20707565646520766f746172207573616e646f20756e6120656c2061646472657373207175652076616c6964c3b32e566f74616e74652064656265206861626572207369646f2076616c696461646f2e566f74616e746520736f6c6f20707565646520766f74617220756e612076657a2e566f74616e746520736f6c6f20707565646520736572207665726966696361646f20756e6120736f6c612076657a2ea165627a7a72305820642e3b444be3503234899a72b11f051d653a110098bd02240f1c0905f2b908230029",
  "source": "pragma solidity ^0.5.8;\n\ncontract Ownable {\n   address public owner;\n\n   constructor () public{\n       owner = msg.sender;\n   }\n\n   modifier onlyOwner {\n       require(msg.sender == owner, \"Votante no autorizado.\");\n       _;\n   }\n}\n\n\ncontract Voting is Ownable {\n    // Candidates map\n    uint8 private candidatesListCounter = 0;\n    uint8[9] private cantidateListId;\n    bytes32[9] private cantidateListName;\n    uint8[9] private candidateListVotes;\n    // Candidates utilities\n    mapping(bytes32 => bool) private candidateValidator;\n\n    // Voters map\n    uint8[28] private votersListId;\n    bytes32[28] private votersListIdentification;\n    bytes32[28] private votersListName;\n    // Voters utilities\n    mapping(bytes32 => address) private votersListAddressMap;\n    mapping(bytes32 => uint8) private votersListValidator;\n    mapping(bytes32 => bool) private votersListVoted;\n    mapping(address => uint8) private votersListIdMap;\n\n    // Voting starter and finisher\n    bool votingIsOpen;\n\n    // Events\n    event AddedCandidate(bytes32 candidateStored);\n    event AddedVote(bytes32 candidateName, uint8 candidateVotes);\n\n    /**\n     * Constructor. Initialize the voters.\n     */\n    constructor(uint8[28] memory _votersListId,\n                bytes32[28] memory _votersListIdentification,\n                bytes32[28] memory _votersListName,\n                uint8[9] memory _cantidateListId,\n                bytes32[9] memory _cantidateListName) public {\n\n        // Voters initialization\n        votersListId = _votersListId;\n        votersListIdentification = _votersListIdentification;\n        votersListName = _votersListName;\n        for( uint8 i = 0 ; i < 28; i++){\n            votersListValidator[votersListIdentification[i]] = 1;\n        }\n\n        // Candidates initialization\n        cantidateListId = _cantidateListId;\n        cantidateListName = _cantidateListName;\n        for( uint8 i = 0 ; i < 9; i++){\n            candidateListVotes[i] = 0;\n        }\n    }\n\n    modifier onlyNewCandidate(bytes32 _candidate){\n        require(candidateValidator[_candidate] != true, \"Candidato solo puede ser añadido una sola vez.\");\n        _;\n    }\n\n    modifier onlyValidVoter(bytes32 _voterIdentification){\n        require(votersListValidator[_voterIdentification] == 1, \"Votante solo puede ser verificado una sola vez.\");\n        _;\n    }\n\n    function getCandidates() external view returns(uint8[9] memory, bytes32[9] memory) {\n        return (cantidateListId, cantidateListName);\n    }\n\n    function getCandidateVotes(uint8 _candidateId) external view returns(uint8) {\n        require(votingIsOpen == false, \"Solo se pueden ver los votos cuando la votación esté cerrada.\");\n        return candidateListVotes[_candidateId];\n    }\n\n    function getCandidatesVotes() external view returns(bytes32[9] memory, uint8[9] memory) {\n        require(votingIsOpen == false, \"Solo se pueden ver los votos cuando la votación esté cerrada.\");\n        return (cantidateListName, candidateListVotes);\n    }\n\n    function associateUserToAddress(bytes32 _voterIdentification) external onlyValidVoter(_voterIdentification) returns(address, bytes32) {\n        votersListAddressMap[_voterIdentification] = msg.sender;\n        votersListValidator[_voterIdentification] = 2;\n        return (msg.sender, _voterIdentification);\n    }\n\n    function addCandidate(bytes32 _candidate) internal onlyOwner onlyNewCandidate(_candidate)  {\n        // Storing candidate\n        cantidateListId[candidatesListCounter] = candidatesListCounter;\n        cantidateListName[candidatesListCounter] = _candidate;\n        candidateListVotes[candidatesListCounter] = 0;\n\n        // Adding the validator to true for next try\n        candidateValidator[_candidate] = true;\n\n        // Adds a new list counter for the next candidate\n        candidatesListCounter = candidatesListCounter + 1;\n        emit AddedCandidate(_candidate);\n    }\n\n    function vote(uint8 _candidateId, bytes32 _voterIdentification)  external {\n        // Validadtions\n        require(votingIsOpen == true, \"Solo se puede votar cuando el tiempo de votación este activo.\");\n        require(votersListAddressMap[_voterIdentification] == msg.sender, \"El votante solo puede votar usando una el address que validó.\");\n        require(votersListValidator[_voterIdentification] == 2, \"Votante debe haber sido validado.\");\n        require(votersListVoted[_voterIdentification] == false, \"Votante solo puede votar una vez.\");\n\n        // Incrementing voting count\n        uint8 _candidateCount = candidateListVotes[_candidateId] + 1;\n\n        // Removing the possibility for this voter to vote again\n        votersListVoted[_voterIdentification] = true;\n       votersListValidator[_voterIdentification] = 3;\n\n        // Asigning the new votes to the candidate\n        candidateListVotes[_candidateId] = _candidateCount;\n\n        emit AddedVote(cantidateListName[_candidateId], _candidateCount);\n    }\n\n    function initializeVoting() external onlyOwner {\n        votingIsOpen = true;\n    }\n\n    function finishVoting() external onlyOwner {\n        votingIsOpen = false;\n    }\n\n    function getVotingStatus() external view returns(bool) {\n        return votingIsOpen;\n    }\n\n    function() external payable {}\n}",
  "sourcePath": "/Users/erick/Universidad/2019/Seguridad/classroom-vote-system/contracts/Voting.sol",
  "compiler": {
    "name": "solc",
    "version": "0.5.8+commit.23d335f2.Emscripten.clang"
  },
  "schemaVersion": "3.0.11",
  "updatedAt": "2019-06-17T03:41:24.317Z",
  "devdoc": {
    "methods": {}
  },
  "userdoc": {
    "methods": {
      "constructor": "Constructor. Initialize the voters."
    }
  }
}